{
  "_format": "hh-sol-artifact-1",
  "contractName": "PolywrapRegistry",
  "sourceName": "contracts/PolywrapRegistry.sol",
  "abi": [
    {
      "inputs": [
        {
          "internalType": "contract ENS",
          "name": "_ens",
          "type": "address"
        }
      ],
      "stateMutability": "nonpayable",
      "type": "constructor"
    },
    {
      "anonymous": false,
      "inputs": [
        {
          "indexed": true,
          "internalType": "bytes32",
          "name": "ensNode",
          "type": "bytes32"
        },
        {
          "indexed": true,
          "internalType": "bytes32",
          "name": "apiId",
          "type": "bytes32"
        }
      ],
      "name": "ApiRegistered",
      "type": "event"
    },
    {
      "anonymous": false,
      "inputs": [
        {
          "indexed": true,
          "internalType": "bytes32",
          "name": "apiId",
          "type": "bytes32"
        },
        {
          "indexed": true,
          "internalType": "address",
          "name": "manager",
          "type": "address"
        }
      ],
      "name": "ManagerAdded",
      "type": "event"
    },
    {
      "anonymous": false,
      "inputs": [
        {
          "indexed": true,
          "internalType": "bytes32",
          "name": "apiId",
          "type": "bytes32"
        },
        {
          "indexed": true,
          "internalType": "address",
          "name": "manager",
          "type": "address"
        }
      ],
      "name": "ManagerRemoved",
      "type": "event"
    },
    {
      "anonymous": false,
      "inputs": [
        {
          "indexed": true,
          "internalType": "address",
          "name": "previousOwner",
          "type": "address"
        },
        {
          "indexed": true,
          "internalType": "address",
          "name": "newOwner",
          "type": "address"
        }
      ],
      "name": "OwnershipTransferred",
      "type": "event"
    },
    {
      "anonymous": false,
      "inputs": [
        {
          "indexed": true,
          "internalType": "bytes32",
          "name": "apiId",
          "type": "bytes32"
        },
        {
          "indexed": false,
          "internalType": "bytes32",
          "name": "versionId",
          "type": "bytes32"
        },
        {
          "indexed": false,
          "internalType": "uint256",
          "name": "major",
          "type": "uint256"
        },
        {
          "indexed": false,
          "internalType": "uint256",
          "name": "minor",
          "type": "uint256"
        },
        {
          "indexed": false,
          "internalType": "uint256",
          "name": "patch",
          "type": "uint256"
        },
        {
          "indexed": false,
          "internalType": "string",
          "name": "location",
          "type": "string"
        }
      ],
      "name": "VersionPublished",
      "type": "event"
    },
    {
      "inputs": [
        {
          "internalType": "bytes32",
          "name": "apiId",
          "type": "bytes32"
        },
        {
          "internalType": "address",
          "name": "manager",
          "type": "address"
        }
      ],
      "name": "addApiManager",
      "outputs": [],
      "stateMutability": "nonpayable",
      "type": "function"
    },
    {
      "inputs": [
        {
          "internalType": "bytes32",
          "name": "",
          "type": "bytes32"
        }
      ],
      "name": "apiManagers",
      "outputs": [
        {
          "internalType": "bool",
          "name": "",
          "type": "bool"
        }
      ],
      "stateMutability": "view",
      "type": "function"
    },
    {
      "inputs": [
        {
          "internalType": "bytes32",
          "name": "nodeId",
          "type": "bytes32"
        }
      ],
      "name": "getPackageLocation",
      "outputs": [
        {
          "internalType": "string",
          "name": "",
          "type": "string"
        }
      ],
      "stateMutability": "view",
      "type": "function"
    },
    {
      "inputs": [],
      "name": "initialize",
      "outputs": [],
      "stateMutability": "nonpayable",
      "type": "function"
    },
    {
      "inputs": [
        {
          "internalType": "bytes32",
          "name": "apiId",
          "type": "bytes32"
        },
        {
          "internalType": "address",
          "name": "ownerOrManager",
          "type": "address"
        }
      ],
      "name": "isAuthorized",
      "outputs": [
        {
          "internalType": "bool",
          "name": "",
          "type": "bool"
        }
      ],
      "stateMutability": "view",
      "type": "function"
    },
    {
      "inputs": [
        {
          "internalType": "bytes32",
          "name": "",
          "type": "bytes32"
        }
      ],
      "name": "nodes",
      "outputs": [
        {
          "internalType": "bool",
          "name": "leaf",
          "type": "bool"
        },
        {
          "internalType": "uint256",
          "name": "latestSubVersion",
          "type": "uint256"
        },
        {
          "internalType": "bool",
          "name": "created",
          "type": "bool"
        },
        {
          "internalType": "string",
          "name": "location",
          "type": "string"
        }
      ],
      "stateMutability": "view",
      "type": "function"
    },
    {
      "inputs": [],
      "name": "owner",
      "outputs": [
        {
          "internalType": "address",
          "name": "",
          "type": "address"
        }
      ],
      "stateMutability": "view",
      "type": "function"
    },
    {
      "inputs": [
        {
          "internalType": "bytes32",
          "name": "apiId",
          "type": "bytes32"
        },
        {
          "internalType": "uint256",
          "name": "majorVersion",
          "type": "uint256"
        },
        {
          "internalType": "uint256",
          "name": "minorVersion",
          "type": "uint256"
        },
        {
          "internalType": "uint256",
          "name": "patchVersion",
          "type": "uint256"
        },
        {
          "internalType": "string",
          "name": "location",
          "type": "string"
        }
      ],
      "name": "publishNewVersion",
      "outputs": [],
      "stateMutability": "nonpayable",
      "type": "function"
    },
    {
      "inputs": [
        {
          "internalType": "bytes32",
          "name": "ensNode",
          "type": "bytes32"
        }
      ],
      "name": "registerAPI",
      "outputs": [],
      "stateMutability": "nonpayable",
      "type": "function"
    },
    {
      "inputs": [
        {
          "internalType": "bytes32",
          "name": "",
          "type": "bytes32"
        }
      ],
      "name": "registeredAPI",
      "outputs": [
        {
          "internalType": "uint256",
          "name": "",
          "type": "uint256"
        }
      ],
      "stateMutability": "view",
      "type": "function"
    },
    {
      "inputs": [
        {
          "internalType": "bytes32",
          "name": "apiId",
          "type": "bytes32"
        },
        {
          "internalType": "address",
          "name": "manager",
          "type": "address"
        }
      ],
      "name": "removeApiManager",
      "outputs": [],
      "stateMutability": "nonpayable",
      "type": "function"
    },
    {
      "inputs": [],
      "name": "renounceOwnership",
      "outputs": [],
      "stateMutability": "nonpayable",
      "type": "function"
    },
    {
      "inputs": [
        {
          "internalType": "bytes32",
          "name": "nodeId",
          "type": "bytes32"
        }
      ],
      "name": "resolveToLeaf",
      "outputs": [
        {
          "internalType": "bytes32",
          "name": "",
          "type": "bytes32"
        }
      ],
      "stateMutability": "view",
      "type": "function"
    },
    {
      "inputs": [
        {
          "internalType": "address",
          "name": "newOwner",
          "type": "address"
        }
      ],
      "name": "transferOwnership",
      "outputs": [],
      "stateMutability": "nonpayable",
      "type": "function"
    }
  ],
  "bytecode": "0x60806040526040518060400160405280601381526020017f706f6c79777261702d636f6e74726f6c6c6572000000000000000000000000008152506065908051906020019062000051929190620000d5565b503480156200005f57600080fd5b5060405162002c1b38038062002c1b83398181016040528101906200008591906200019c565b8080808080606860006101000a81548173ffffffffffffffffffffffffffffffffffffffff021916908373ffffffffffffffffffffffffffffffffffffffff16021790555050505050506200028f565b828054620000e39062000210565b90600052602060002090601f01602090048101928262000107576000855562000153565b82601f106200012257805160ff191683800117855562000153565b8280016001018555821562000153579182015b828111156200015257825182559160200191906001019062000135565b5b50905062000162919062000166565b5090565b5b808211156200018157600081600090555060010162000167565b5090565b600081519050620001968162000275565b92915050565b600060208284031215620001af57600080fd5b6000620001bf8482850162000185565b91505092915050565b6000620001d582620001f0565b9050919050565b6000620001e982620001c8565b9050919050565b600073ffffffffffffffffffffffffffffffffffffffff82169050919050565b600060028204905060018216806200022957607f821691505b6020821081141562000240576200023f62000246565b5b50919050565b7f4e487b7100000000000000000000000000000000000000000000000000000000600052602260045260246000fd5b6200028081620001dc565b81146200028c57600080fd5b50565b61297c806200029f6000396000f3fe608060405234801561001057600080fd5b50600436106100ea5760003560e01c806379b0b8f11161008c578063956db46511610066578063956db46514610235578063d787efa514610265578063d86e697d14610281578063f2fde38b146102b4576100ea565b806379b0b8f1146101f15780638129fc1c1461020d5780638da5cb5b14610217576100ea565b8063555e2623116100c8578063555e26231461016b578063715018a61461019b57806371fd7f81146101a557806377ba3a62146101d5576100ea565b80630a89c15b146100ef578063233a1d991461010b57806326bc69f41461013b575b600080fd5b61010960048036038101906101049190611c3b565b6102d0565b005b61012560048036038101906101209190611bd6565b6105d6565b60405161013291906120bb565b60405180910390f35b61015560048036038101906101509190611bd6565b6106a3565b6040516101629190612054565b60405180910390f35b61018560048036038101906101809190611bd6565b6106c3565b60405161019291906122e2565b60405180910390f35b6101a36106db565b005b6101bf60048036038101906101ba9190611bd6565b610818565b6040516101cc9190612160565b60405180910390f35b6101ef60048036038101906101ea9190611bd6565b6108ce565b005b61020b60048036038101906102069190611bff565b610a14565b005b610215610b8e565b005b61021f610c6f565b60405161022c9190612039565b60405180910390f35b61024f600480360381019061024a9190611bff565b610c99565b60405161025c9190612054565b60405180910390f35b61027f600480360381019061027a9190611bff565b610d98565b005b61029b60048036038101906102969190611bd6565b610f12565b6040516102ab949392919061206f565b60405180910390f35b6102ce60048036038101906102c99190611b84565b610fe4565b005b846102db8133610c99565b61031a576040517f08c379a0000000000000000000000000000000000000000000000000000000008152600401610311906122a2565b60405180910390fd5b60006066600088815260200190815260200160002090508581600101541015610347578581600101819055505b60018160020160006101000a81548160ff0219169083151502179055506000878760405160200161037992919061200d565b604051602081830303815290604052805190602001209050600060666000838152602001908152602001600020905086816001015410156103be578681600101819055505b60018160020160006101000a81548160ff021916908315150217905550600082886040516020016103f092919061200d565b60405160208183030381529060405280519060200120905060006066600083815260200190815260200160002090508781600101541015610435578781600101819055505b60018160020160006101000a81548160ff0219169083151502179055506000828960405160200161046792919061200d565b6040516020818303038152906040528051906020012090506066600082815260200190815260200160002060020160009054906101000a900460ff16156104e3576040517f08c379a00000000000000000000000000000000000000000000000000000000081526004016104da90612222565b60405180910390fd5b604051806080016040528060011515815260200160008152602001600115158152602001898152506066600083815260200190815260200160002060008201518160000160006101000a81548160ff0219169083151502179055506020820151816001015560408201518160020160006101000a81548160ff02191690831515021790555060608201518160030190805190602001906105849291906119bd565b509050508b7f766ec902e0e8430fa46410911fda33cc2280476464fea20cd80a691156f2d6cd828d8d8d8d6040516105c0959493929190612106565b60405180910390a2505050505050505050505050565b6000806066600084815260200190815260200160002090508060020160009054906101000a900460ff1661063f576040517f08c379a000000000000000000000000000000000000000000000000000000000815260040161063690612242565b60405180910390fd5b8060000160009054906101000a900460ff161561065f578291505061069e565b600083826001015460405160200161067892919061200d565b604051602081830303815290604052805190602001209050610699816105d6565b925050505b919050565b60696020528060005260406000206000915054906101000a900460ff1681565b60676020528060005260406000206000915090505481565b6106e3611190565b73ffffffffffffffffffffffffffffffffffffffff16610701610c6f565b73ffffffffffffffffffffffffffffffffffffffff1614610757576040517f08c379a000000000000000000000000000000000000000000000000000000000815260040161074e90612202565b60405180910390fd5b600073ffffffffffffffffffffffffffffffffffffffff16603360009054906101000a900473ffffffffffffffffffffffffffffffffffffffff1673ffffffffffffffffffffffffffffffffffffffff167f8be0079c531659141344cd1fd0a4f28419497f9722a3daafe3b4186f6b6457e060405160405180910390a36000603360006101000a81548173ffffffffffffffffffffffffffffffffffffffff021916908373ffffffffffffffffffffffffffffffffffffffff160217905550565b60606000610825836105d6565b90506066600082815260200190815260200160002060030180546108489061253a565b80601f01602080910402602001604051908101604052809291908181526020018280546108749061253a565b80156108c15780601f10610896576101008083540402835291602001916108c1565b820191906000526020600020905b8154815290600101906020018083116108a457829003601f168201915b5050505050915050919050565b803373ffffffffffffffffffffffffffffffffffffffff166108ef82611198565b73ffffffffffffffffffffffffffffffffffffffff1614610945576040517f08c379a000000000000000000000000000000000000000000000000000000000815260040161093c90612262565b60405180910390fd5b6000826040516020016109589190611fc6565b60405160208183030381529060405280519060200120905060006067600083815260200190815260200160002054146109c6576040517f08c379a00000000000000000000000000000000000000000000000000000000081526004016109bd906121e2565b60405180910390fd5b8260001c606760008381526020019081526020016000208190555080837f1f44db5ad5cb5704ef0f6c5d8d4b0706a28ce54470f0014f43eeca10a1124b3c60405160405180910390a3505050565b816000606760008381526020019081526020016000205490506000811415610a71576040517f08c379a0000000000000000000000000000000000000000000000000000000008152600401610a68906121a2565b60405180910390fd5b3373ffffffffffffffffffffffffffffffffffffffff16610a948260001b611198565b73ffffffffffffffffffffffffffffffffffffffff1614610aea576040517f08c379a0000000000000000000000000000000000000000000000000000000008152600401610ae1906122c2565b60405180910390fd5b60008484604051602001610aff929190611fe1565b60405160208183030381529060405280519060200120905060006069600083815260200190815260200160002060006101000a81548160ff0219169083151502179055508373ffffffffffffffffffffffffffffffffffffffff16857f09f3834f8c364f78dd28fd9b79eefacfae7a3d41e6f9008d88babfd22bd1f24960405160405180910390a35050505050565b600060019054906101000a900460ff1680610bb4575060008054906101000a900460ff16155b610bf3576040517f08c379a0000000000000000000000000000000000000000000000000000000008152600401610bea906121c2565b60405180910390fd5b60008060019054906101000a900460ff161590508015610c43576001600060016101000a81548160ff02191690831515021790555060016000806101000a81548160ff0219169083151502179055505b610c4b61135f565b8015610c6c5760008060016101000a81548160ff0219169083151502179055505b50565b6000603360009054906101000a900473ffffffffffffffffffffffffffffffffffffffff16905090565b600080606760008581526020019081526020016000205490506000811415610cf6576040517f08c379a0000000000000000000000000000000000000000000000000000000008152600401610ced906121a2565b60405180910390fd5b8273ffffffffffffffffffffffffffffffffffffffff16610d198260001b611198565b73ffffffffffffffffffffffffffffffffffffffff161415610d3f576001915050610d92565b60008484604051602001610d54929190611fe1565b6040516020818303038152906040528051906020012090506069600082815260200190815260200160002060009054906101000a900460ff16925050505b92915050565b816000606760008381526020019081526020016000205490506000811415610df5576040517f08c379a0000000000000000000000000000000000000000000000000000000008152600401610dec906121a2565b60405180910390fd5b3373ffffffffffffffffffffffffffffffffffffffff16610e188260001b611198565b73ffffffffffffffffffffffffffffffffffffffff1614610e6e576040517f08c379a0000000000000000000000000000000000000000000000000000000008152600401610e65906122c2565b60405180910390fd5b60008484604051602001610e83929190611fe1565b60405160208183030381529060405280519060200120905060016069600083815260200190815260200160002060006101000a81548160ff0219169083151502179055508373ffffffffffffffffffffffffffffffffffffffff16857fe46710533b73e7bc8e141ac9ce789902221e6df8529e50ffafa7084c7461dd9f60405160405180910390a35050505050565b60666020528060005260406000206000915090508060000160009054906101000a900460ff16908060010154908060020160009054906101000a900460ff1690806003018054610f619061253a565b80601f0160208091040260200160405190810160405280929190818152602001828054610f8d9061253a565b8015610fda5780601f10610faf57610100808354040283529160200191610fda565b820191906000526020600020905b815481529060010190602001808311610fbd57829003601f168201915b5050505050905084565b610fec611190565b73ffffffffffffffffffffffffffffffffffffffff1661100a610c6f565b73ffffffffffffffffffffffffffffffffffffffff1614611060576040517f08c379a000000000000000000000000000000000000000000000000000000000815260040161105790612202565b60405180910390fd5b600073ffffffffffffffffffffffffffffffffffffffff168173ffffffffffffffffffffffffffffffffffffffff1614156110d0576040517f08c379a00000000000000000000000000000000000000000000000000000000081526004016110c790612182565b60405180910390fd5b8073ffffffffffffffffffffffffffffffffffffffff16603360009054906101000a900473ffffffffffffffffffffffffffffffffffffffff1673ffffffffffffffffffffffffffffffffffffffff167f8be0079c531659141344cd1fd0a4f28419497f9722a3daafe3b4186f6b6457e060405160405180910390a380603360006101000a81548173ffffffffffffffffffffffffffffffffffffffff021916908373ffffffffffffffffffffffffffffffffffffffff16021790555050565b600033905090565b600080606860009054906101000a900473ffffffffffffffffffffffffffffffffffffffff1673ffffffffffffffffffffffffffffffffffffffff16630178b8bf846040518263ffffffff1660e01b81526004016111f691906120bb565b60206040518083038186803b15801561120e57600080fd5b505afa158015611222573d6000803e3d6000fd5b505050506040513d601f19601f820116820180604052508101906112469190611bad565b9050600073ffffffffffffffffffffffffffffffffffffffff168173ffffffffffffffffffffffffffffffffffffffff1614156112b8576040517f08c379a00000000000000000000000000000000000000000000000000000000081526004016112af90612282565b60405180910390fd5b60008190506113568173ffffffffffffffffffffffffffffffffffffffff166359d1d43c8660656040518363ffffffff1660e01b81526004016112fc9291906120d6565b60006040518083038186803b15801561131457600080fd5b505afa158015611328573d6000803e3d6000fd5b505050506040513d6000823e3d601f19601f820116820180604052508101906113519190611cca565b611448565b92505050919050565b600060019054906101000a900460ff1680611385575060008054906101000a900460ff16155b6113c4576040517f08c379a00000000000000000000000000000000000000000000000000000000081526004016113bb906121c2565b60405180910390fd5b60008060019054906101000a900460ff161590508015611414576001600060016101000a81548160ff02191690831515021790555060016000806101000a81548160ff0219169083151502179055505b61141c611762565b61142461183b565b80156114455760008060016101000a81548160ff0219169083151502179055505b50565b600080829050600080806000600290505b602a81101561175557610100846114709190612424565b93508481815181106114ab577f4e487b7100000000000000000000000000000000000000000000000000000000600052603260045260246000fd5b602001015160f81c60f81b60f81c60ff169250846001826114cc91906123ce565b81518110611503577f4e487b7100000000000000000000000000000000000000000000000000000000600052603260045260246000fd5b602001015160f81c60f81b60f81c60ff16915060618373ffffffffffffffffffffffffffffffffffffffff1610158015611554575060668373ffffffffffffffffffffffffffffffffffffffff1611155b1561156d576057836115669190612472565b9250611619565b60418373ffffffffffffffffffffffffffffffffffffffff16101580156115ab575060468373ffffffffffffffffffffffffffffffffffffffff1611155b156115c4576037836115bd9190612472565b9250611618565b60308373ffffffffffffffffffffffffffffffffffffffff1610158015611602575060398373ffffffffffffffffffffffffffffffffffffffff1611155b15611617576030836116149190612472565b92505b5b5b60618273ffffffffffffffffffffffffffffffffffffffff1610158015611657575060668273ffffffffffffffffffffffffffffffffffffffff1611155b15611670576057826116699190612472565b915061171c565b60418273ffffffffffffffffffffffffffffffffffffffff16101580156116ae575060468273ffffffffffffffffffffffffffffffffffffffff1611155b156116c7576037826116c09190612472565b915061171b565b60308273ffffffffffffffffffffffffffffffffffffffff1610158015611705575060398273ffffffffffffffffffffffffffffffffffffffff1611155b1561171a576030826117179190612472565b91505b5b5b8160108461172a9190612424565b6117349190612384565b8461173f9190612384565b935060028161174e91906123ce565b9050611459565b5082945050505050919050565b600060019054906101000a900460ff1680611788575060008054906101000a900460ff16155b6117c7576040517f08c379a00000000000000000000000000000000000000000000000000000000081526004016117be906121c2565b60405180910390fd5b60008060019054906101000a900460ff161590508015611817576001600060016101000a81548160ff02191690831515021790555060016000806101000a81548160ff0219169083151502179055505b80156118385760008060016101000a81548160ff0219169083151502179055505b50565b600060019054906101000a900460ff1680611861575060008054906101000a900460ff16155b6118a0576040517f08c379a0000000000000000000000000000000000000000000000000000000008152600401611897906121c2565b60405180910390fd5b60008060019054906101000a900460ff1615905080156118f0576001600060016101000a81548160ff02191690831515021790555060016000806101000a81548160ff0219169083151502179055505b60006118fa611190565b905080603360006101000a81548173ffffffffffffffffffffffffffffffffffffffff021916908373ffffffffffffffffffffffffffffffffffffffff1602179055508073ffffffffffffffffffffffffffffffffffffffff16600073ffffffffffffffffffffffffffffffffffffffff167f8be0079c531659141344cd1fd0a4f28419497f9722a3daafe3b4186f6b6457e060405160405180910390a35080156119ba5760008060016101000a81548160ff0219169083151502179055505b50565b8280546119c99061253a565b90600052602060002090601f0160209004810192826119eb5760008555611a32565b82601f10611a0457805160ff1916838001178555611a32565b82800160010185558215611a32579182015b82811115611a31578251825591602001919060010190611a16565b5b509050611a3f9190611a43565b5090565b5b80821115611a5c576000816000905550600101611a44565b5090565b6000611a73611a6e84612322565b6122fd565b905082815260208101848484011115611a8b57600080fd5b611a968482856124f8565b509392505050565b6000611ab1611aac84612322565b6122fd565b905082815260208101848484011115611ac957600080fd5b611ad4848285612507565b509392505050565b600081359050611aeb81612901565b92915050565b600081519050611b0081612901565b92915050565b600081359050611b1581612918565b92915050565b600082601f830112611b2c57600080fd5b8135611b3c848260208601611a60565b91505092915050565b600082601f830112611b5657600080fd5b8151611b66848260208601611a9e565b91505092915050565b600081359050611b7e8161292f565b92915050565b600060208284031215611b9657600080fd5b6000611ba484828501611adc565b91505092915050565b600060208284031215611bbf57600080fd5b6000611bcd84828501611af1565b91505092915050565b600060208284031215611be857600080fd5b6000611bf684828501611b06565b91505092915050565b60008060408385031215611c1257600080fd5b6000611c2085828601611b06565b9250506020611c3185828601611adc565b9150509250929050565b600080600080600060a08688031215611c5357600080fd5b6000611c6188828901611b06565b9550506020611c7288828901611b6f565b9450506040611c8388828901611b6f565b9350506060611c9488828901611b6f565b925050608086013567ffffffffffffffff811115611cb157600080fd5b611cbd88828901611b1b565b9150509295509295909350565b600060208284031215611cdc57600080fd5b600082015167ffffffffffffffff811115611cf657600080fd5b611d0284828501611b45565b91505092915050565b611d14816124a6565b82525050565b611d2b611d26826124a6565b61259d565b82525050565b611d3a816124b8565b82525050565b611d49816124c4565b82525050565b611d60611d5b826124c4565b6125af565b82525050565b6000611d7182612368565b611d7b8185612373565b9350611d8b818560208601612507565b611d9481612662565b840191505092915050565b60008154611dac8161253a565b611db68186612373565b94506001821660008114611dd15760018114611de357611e16565b60ff1983168652602086019350611e16565b611dec85612353565b60005b83811015611e0e57815481890152600182019150602081019050611def565b808801955050505b50505092915050565b6000611e2c602683612373565b9150611e3782612680565b604082019050919050565b6000611e4f601583612373565b9150611e5a826126cf565b602082019050919050565b6000611e72602e83612373565b9150611e7d826126f8565b604082019050919050565b6000611e95601983612373565b9150611ea082612747565b602082019050919050565b6000611eb8602083612373565b9150611ec382612770565b602082019050919050565b6000611edb601c83612373565b9150611ee682612799565b602082019050919050565b6000611efe600c83612373565b9150611f09826127c2565b602082019050919050565b6000611f21602883612373565b9150611f2c826127eb565b604082019050919050565b6000611f44601083612373565b9150611f4f8261283a565b602082019050919050565b6000611f67602283612373565b9150611f7282612863565b604082019050919050565b6000611f8a603483612373565b9150611f95826128b2565b604082019050919050565b611fa9816124ee565b82525050565b611fc0611fbb826124ee565b6125cb565b82525050565b6000611fd28284611d4f565b60208201915081905092915050565b6000611fed8285611d4f565b602082019150611ffd8284611d1a565b6014820191508190509392505050565b60006120198285611d4f565b6020820191506120298284611faf565b6020820191508190509392505050565b600060208201905061204e6000830184611d0b565b92915050565b60006020820190506120696000830184611d31565b92915050565b60006080820190506120846000830187611d31565b6120916020830186611fa0565b61209e6040830185611d31565b81810360608301526120b08184611d66565b905095945050505050565b60006020820190506120d06000830184611d40565b92915050565b60006040820190506120eb6000830185611d40565b81810360208301526120fd8184611d9f565b90509392505050565b600060a08201905061211b6000830188611d40565b6121286020830187611fa0565b6121356040830186611fa0565b6121426060830185611fa0565b81810360808301526121548184611d66565b90509695505050505050565b6000602082019050818103600083015261217a8184611d66565b905092915050565b6000602082019050818103600083015261219b81611e1f565b9050919050565b600060208201905081810360008301526121bb81611e42565b9050919050565b600060208201905081810360008301526121db81611e65565b9050919050565b600060208201905081810360008301526121fb81611e88565b9050919050565b6000602082019050818103600083015261221b81611eab565b9050919050565b6000602082019050818103600083015261223b81611ece565b9050919050565b6000602082019050818103600083015261225b81611ef1565b9050919050565b6000602082019050818103600083015261227b81611f14565b9050919050565b6000602082019050818103600083015261229b81611f37565b9050919050565b600060208201905081810360008301526122bb81611f5a565b9050919050565b600060208201905081810360008301526122db81611f7d565b9050919050565b60006020820190506122f76000830184611fa0565b92915050565b6000612307612318565b9050612313828261256c565b919050565b6000604051905090565b600067ffffffffffffffff82111561233d5761233c612633565b5b61234682612662565b9050602081019050919050565b60008190508160005260206000209050919050565b600081519050919050565b600082825260208201905092915050565b600061238f826124ce565b915061239a836124ce565b92508273ffffffffffffffffffffffffffffffffffffffff038211156123c3576123c26125d5565b5b828201905092915050565b60006123d9826124ee565b91506123e4836124ee565b9250827fffffffffffffffffffffffffffffffffffffffffffffffffffffffffffffffff03821115612419576124186125d5565b5b828201905092915050565b600061242f826124ce565b915061243a836124ce565b92508173ffffffffffffffffffffffffffffffffffffffff0483118215151615612467576124666125d5565b5b828202905092915050565b600061247d826124ce565b9150612488836124ce565b92508282101561249b5761249a6125d5565b5b828203905092915050565b60006124b1826124ce565b9050919050565b60008115159050919050565b6000819050919050565b600073ffffffffffffffffffffffffffffffffffffffff82169050919050565b6000819050919050565b82818337600083830152505050565b60005b8381101561252557808201518184015260208101905061250a565b83811115612534576000848401525b50505050565b6000600282049050600182168061255257607f821691505b6020821081141561256657612565612604565b5b50919050565b61257582612662565b810181811067ffffffffffffffff8211171561259457612593612633565b5b80604052505050565b60006125a8826125b9565b9050919050565b6000819050919050565b60006125c482612673565b9050919050565b6000819050919050565b7f4e487b7100000000000000000000000000000000000000000000000000000000600052601160045260246000fd5b7f4e487b7100000000000000000000000000000000000000000000000000000000600052602260045260246000fd5b7f4e487b7100000000000000000000000000000000000000000000000000000000600052604160045260246000fd5b6000601f19601f8301169050919050565b60008160601b9050919050565b7f4f776e61626c653a206e6577206f776e657220697320746865207a65726f206160008201527f6464726573730000000000000000000000000000000000000000000000000000602082015250565b7f415049206973206e6f7420726567697374657265640000000000000000000000600082015250565b7f496e697469616c697a61626c653a20636f6e747261637420697320616c72656160008201527f647920696e697469616c697a6564000000000000000000000000000000000000602082015250565b7f41504920697320616c7265616479207265676973746572656400000000000000600082015250565b7f4f776e61626c653a2063616c6c6572206973206e6f7420746865206f776e6572600082015250565b7f56657273696f6e20697320616c7265616479207075626c697368656400000000600082015250565b7f496e76616c6964204e6f64650000000000000000000000000000000000000000600082015250565b7f596f7520646f206e6f7420686176652061636365737320746f2074686520454e60008201527f5320646f6d61696e000000000000000000000000000000000000000000000000602082015250565b7f5265736f6c766572206e6f742073657400000000000000000000000000000000600082015250565b7f596f7520646f206e6f7420686176652061636365737320746f2074686973204160008201527f5049000000000000000000000000000000000000000000000000000000000000602082015250565b7f596f7520646f206e6f7420686176652061636365737320746f2074686520454e60008201527f5320646f6d61696e206f66207468697320415049000000000000000000000000602082015250565b61290a816124a6565b811461291557600080fd5b50565b612921816124c4565b811461292c57600080fd5b50565b612938816124ee565b811461294357600080fd5b5056fea2646970667358221220ac645a597a370fc9c70aec38da5251cc21fca3a55af1723a1eefbdcd4070092d64736f6c63430008040033",
  "linkReferences": {},
  "deployedLinkReferences": {}
}